S01E000050726163746963756D375F546163686F6D65746572322E737265638A
S11300000C942A000C943C000C943C000C943C008E
S11300100C943C000C943C000C943C000C943C006C
S11300200C943C000C943C000C943C000C943C005C
S11300300C943C000C943C000C943C000C943C004C
S11300400C943C000C943C000C943C000C943C003C
S11300500C943C0011241FBECFE5D8E0DEBFCDBF19
S113006020E0A0E6B0E001C01D92A036B207E1F79F
S11300700E943E000C9452000C9400008AB38FEF4F
S11300808ABB8BBB8EB581608EBD2FE986E891E07B
S1130090215080409040E1F700C000008BB38058AD
S10B00A08BBBF3CFF894FFCFF2
S9030000FC
