S01E000050726163746963756D375F546163686F6D65746572322E737265638A
S11300000C942A000C9434000C9434000C943400A6
S11300100C9434000C9434000C9434000C9434008C
S11300200C9434000C9434000C9434000C9434007C
S11300300C9434000C9434000C9434000C9434006C
S11300400C9434000C9434000C9434000C9434005C
S11300500C94340011241FBECFE5D8E0DEBFCDBF21
S11300600E9436000C9450000C94000011BA8FEFDB
S113007084BB85BB82BB4FE73FEB2FED9FEE0000B7
S1130080849902C095BB0AC0859902C025BB06C0ED
S1130090869902C035BB02C0879B45BB85BBEFCFA9
S10700A0F894FFCFFE
S9030000FC
