S01E000050726163746963756D375F546163686F6D65746572322E737265638A
S11300000C942A000C94B0000C9447000C94470004
S11300100C9447000C9447000C9447000C94470040
S11300200C9447000C9453000C9447000C94490022
S11300300C9447000C9447000C9447000C94470020
S11300400C9447000C9447000C9447000C94470010
S11300500C94470011241FBECFE5D8E0DEBFCDBF0E
S113006010E0A0E6B0E0E2E7F5E002C005900D92F2
S1130070A037B107D9F720E0A0E7B0E001C01D9296
S1130080AD37B207E1F70E945E010C94B7020C94FD
S113009000001F920F920FB60F9211240F900FBE03
S11300A00F901F9018951F920F920FB60F92112464
S11300B02F933F934F935F936F937F938F939F936C
S11300C0AF93BF93EF93FF93209175003091760027
S11300D040917700509178006091790070917A0096
S11300E080917B0090917C00A1E00E94AB02209360
S11300F075003093760040937700509378006093B6
S1130100790070937A0080937B0090937C006091D7
S113011073007091740080E090E00E940E0223E36B
S113012033E343E85FE30E946D010E94DF017093B3
S11301307200609371001092740010927300FF912A
S1130140EF91BF91AF919F918F917F916F915F914B
S11301504F913F912F910F900FBE0F901F901895C4
S11301601F920F920FB60F9211248F939F93809139
S113017073009091740001969093740080937300BF
S11301809F918F910F900FBE0F901F9018958FEF36
S11301908ABB84BB9FE091BB8BBB85BB12BA08951D
S11301A082E083BF86EB82BF81E08EBD1DBC1CBC98
S11301B0089582E085BF85E089BF80E48BBF789491
S11301C008958091600081110FC080E480936000E5
S11301D080917000833030F4809170008F5F809341
S11301E0700002C0109270008FEF85BB20917000E8
S11301F081E090E002C0880F991F2A95E2F780956C
S11302008BBB80916000E0917000F0E0EF59FF4FEC
S1130210E081F0E0EB59FF4F90818095892B85BBFD
S11302208091600086958093600008950F931F93DA
S1130230CF93DF931F92CDB7DEB7FC0140E050E0CF
S113024001E610E0309721F19F01ADECBCEC0E9477
S11302509C029695879596958795969587959C018A
S1130260220F331F880F991F880F991F880F991F1A
S1130270820F931F9F01281B390B29839F010E9422
S11302809C02FC01F695E795F695E795F695E795BA
S1130290D80111969C918981981729F08981DA01F6
S11302A0AF59BF4F8C934F5F5F4F4430510551F6A8
S11302B00F90DF91CF911F910F9108950E94C70075
S11302C00E94D0000E94D9000E94E1008091710038
S11302D0909172000E941601F7CF0E9481010C9444
S11302E062020E945B0258F00E94540240F029F41A
S11302F05F3F29F00C944B0251110C9496020C941C
S113030051020E94730268F39923B1F3552391F3C8
S1130310951B550BBB27AA2762177307840738F070
S11303209F5F5F4F220F331F441FAA1FA9F335D0CD
S11303300E2E3AF0E0E832D091505040E695001C81
S1130340CAF72BD0FE2F29D0660F771F881FBB1F3B
S1130350261737074807AB07B0E809F0BB0B802D19
S1130360BF01FF2793585F4F3AF09E3F510578F045
S11303700C944B020C9496025F3FE4F3983ED4F342
S1130380869577956795B795F7959F5FC9F7880F19
S1130390911D9695879597F90895E1E0660F771F6B
S11303A0881FBB1F621773078407BA0720F0621BFC
S11303B0730B840BBA0BEE1F88F7E09508950E9427
S11303C07B0288F09F5798F0B92F9927B751B0F066
S11303D0E1F0660F771F881F991F1AF0BA95C9F7C5
S11303E014C0B13091F00E949502B1E008950C94CC
S11303F09502672F782F8827B85F39F0B93FCCF37F
S1130400869577956795B395D9F73EF49095809541
S1130410709561957F4F8F4F9F4F0895E89409C061
S113042097FB3EF490958095709561957F4F8F4F23
S11304309F4F9923A9F0F92F96E9BB279395F69539
S1130440879577956795B795F111F8CFFAF4BB0FB7
S113045011F460FF1BC06F5F7F4F8F4F9F4F16C01B
S1130460882311F096E911C0772321F09EE8872FA5
S1130470762F05C0662371F096E8862F70E060E061
S11304802AF09A95660F771F881FDAF7880F9695DA
S1130490879597F9089597F99F6780E870E060E081
S11304A008959FEF80EC089500240A941616170609
S11304B018060906089500240A9412161306140651
S11304C005060895092E0394000C11F4882352F0B4
S11304D0BB0F40F4BF2B11F460FF04C06F5F7F4F6C
S11304E08F4F9F4F089557FD9058440F551F59F053
S11304F05F3F71F04795880F97FB991F61F09F3F0D
S113050079F087950895121613061406551FF2CF35
S11305104695F1DF08C0161617061806991FF1CF85
S113052086957105610508940895E894BB276627AC
S11305307727CB0197F90895A29FB001B39FC0011B
S1130540A39F700D811D1124911DB29F700D811DFB
S11305501124911D08950024A7FD00942A0F301D35
S1130560401D501D601D701D801D901D0895F89440
S1050570FFCFB7
S11305724000010A0A82BB8591B8D0C09B8090FFDB
S9030000FC
