:100000000C942A000C9447000C9447000C94470071
:100010000C9447000C9447000C9447000C94470044
:100020000C9447000C9447000C9447000C94490032
:100030000C9447000C9447000C9447000C94470024
:100040000C9447000C9447000C9447000C94470014
:100050000C94470011241FBECFE5D8E0DEBFCDBF12
:1000600010E0A0E6B0E0E6E5F1E002C005900D92F8
:10007000AC37B107D9F720E0ACE7B0E001C01D9282
:10008000AE37B207E1F70E949E000C94A9000C94D1
:1000900000001F920F920FB60F9211242F938F938F
:1000A0009F93EF93FF938DE782BF80917C00863012
:1000B00071F410927C0080917D00833030F4809147
:1000C0007D008F5F80937D0002C010927D002091A3
:1000D0007D0081E090E002C0880F991F2A95E2F729
:1000E00080958BBBE0917D0080917C0097E0E99F3B
:1000F000F0011124E05AFF4FE80FF11D808185BB0C
:1001000080917C008F5F80937C00FF91EF919F91A5
:100110008F912F910F900FBE0F901F9018958FEF1A
:100120008ABB8BBB84BB85BB089581E085BF92E011
:1001300093BF9DE792BF89BF789408950E948F0076
:100140000E94950083EC99E00197F1F700C0000050
:06015000F9CFF894FFCF87
:10015600BFFBFFFFFFFFFFBFFBFFFFFFFFFFDFBF91
:0C016600FBF7EFFEFFDFBFFBF7EFFEFF33
:00000001FF
