S01E000050726163746963756D375F546163686F6D65746572322E737265638A
S11300000C942A000C9434000C9434000C943400A6
S11300100C9434000C9434000C9434000C9436008A
S11300200C9434000C9434000C9434000C9434007C
S11300300C9434000C9434000C9434000C9434006C
S11300400C9434000C9434000C9434000C9434005C
S11300500C94340011241FBECFE5D8E0DEBFCDBF21
S11300600E9445000C9458000C9400001F920F92BB
S11300700FB60F9211248F938BB380588BBB8F9143
S11300800F900FBE0F901F9018958FEF8ABB8BBBFC
S11300908EB588608EBD89B7806189BF789488E009
S11300A09DE39BBD8ABD8EB583608EBD0000FECFEF
S10700B0F894FFCFEE
S9030000FC
