S01E000050726163746963756D375F546163686F6D65746572322E737265638A
S11300000C942A000C9434000C9434000C943400A6
S11300100C9434000C9434000C9434000C9434008C
S11300200C9434000C9434000C9434000C9434007C
S11300300C9434000C9434000C9434000C9434006C
S11300400C9434000C9434000C9434000C9434005C
S11300500C94340011241FBECFE5D8E0DEBFCDBF21
S11300600E9436000C944C000C9400008FEF8ABB65
S11300708BBB8EB588608EBD88E09DE39BBD8ABD39
S11300808EB583608EBD90E108B604FEFDCF8BB3C0
S10F009080588BBB98BFF8CFF894FFCFCA
S9030000FC
