:100000000C942A000C943C000C943C000C943C0092
:100010000C943C000C943C000C943C000C943E006E
:100020000C943C000C943C000C943C000C943C0060
:100030000C943C000C943C000C943C000C943C0050
:100040000C943C000C943C000C943C000C943C0040
:100050000C943C0011241FBECFE5D8E0DEBFCDBF1D
:1000600020E0A0E6B0E001C01D92A136B207E1F7A2
:100070000E945E000C9472000C9400001F920F927C
:100080000FB60F9211248F93809160008F5F809341
:10009000600080916000873029F4109260008EEF3C
:1000A00082BB03C082B3869582BB82B3805882BB79
:1000B0008F910F900FBE0F901F9018958FEF81BBFF
:1000C0008EEF82BB8EB588608EBD89B7806189BF97
:1000D000789488E09DE39BBD8ABD8EB583608EBD1C
:0800E0000000FECFF894FFCFF1
:00000001FF
