:100000000C942A000C94A7000C9447000C94470011
:100010000C9447000C9447000C9447000C94470044
:100020000C9447000C9490000C9447000C944900E9
:100030000C9447000C9447000C9447000C94470024
:100040000C9447000C9447000C9447000C94470014
:100050000C94470011241FBECFE5D8E0DEBFCDBF12
:1000600010E0A0E6B0E0E6E4F3E002C005900D92F7
:10007000A23CB107D9F720E0A2ECB0E001C01D928C
:10008000AB3CB207E1F70E9467010C94A1010C940C
:1000900000001F920F920FB60F9211242F938F938F
:1000A0009F93EF93FF9386EB82BF8FEF85BB809189
:1000B000C200863071F41092C2008091C300833078
:1000C00030F48091C3008F5F8093C30002C0109210
:1000D000C3002091C30081E090E002C0880F991F07
:1000E0002A95E2F780958BBBE091C3008091C20016
:1000F00091E0980F9093C20097E0E99FF0011124DE
:10010000EA55FF4FE80FF11D808185BBFF91EF910C
:100110009F918F912F910F900FBE0F901F90189568
:100120001F920F920FB60F9211248F939F9380917D
:10013000C9009091CA0001969093CA008093C900AB
:100140009F918F910F900FBE0F901F9018951F9247
:100150000F920FB60F9211248F939F938CB59DB57C
:100160009093C8008093C7008091C9009091CA0005
:100170008093C6009F918F910F900FBE0F901F909C
:1001800018958FEF84BB8ABB9FE091BB8BBB85BB6F
:1001900091BB089582E083BF86EB82BF81E08EBD74
:1001A0001DBC1CBC089581E085BF85E089BF80E44B
:1001B0008BBF78940895AC011092C300892B09F489
:1001C00057C09A01ADECBCEC0E949201FC01F6957F
:1001D000E795F695E795F695E795CF01880F991F76
:1001E000EE0FFF1FEE0FFF1FEE0FFF1FE80FF91FAF
:1001F000CA018E1B9F0BFC010E949201AC01569517
:100200004795569547955695479520E030E0FF274E
:10021000BF01660F771F660F771F660F771F6E1B74
:100220007F0B605A7F4F8091C300F90197E0899F4F
:10023000E00DF11D1124EA55FF4F9081FB01E20F03
:10024000F31F8081981759F09091C300F901A7E03E
:100250009A9FE00DF11D1124EA55FF4F80832F5F17
:100260003F4F27303105F9F64115510509F0A9CF67
:100270008091C300843038F108952091C300FC01BF
:1002800047E0249FE00DF11D1124EA55FF4F208126
:100290002F3F59F02091C300FC01A7E02A9FE00DF9
:1002A000F11D1124EA55FF4F3083019687309105E7
:1002B00021F78091C3008F5F8093C3008091C300BA
:1002C000843010F008953FEF80E090E0D6CF0E9498
:1002D000C1000E94CA000E94D3008AE090E00E9400
:1002E000DB008091C9009091CA002091C400309138
:1002F000C500821B930B089780F38091C9009091F1
:10030000CA009093C5008093C4008091C900909169
:10031000CA008091C6008CB59DB58091C7009091B0
:10032000C800DBCFA29FB001B39FC001A39F700D97
:10033000811D1124911DB29F700D811D1124911DED
:060340000895F894FFCFC0
:10034600DFBFFBF7EFFEFFBFFBFFFFFFFFFFDFBFD8
:10035600FDEFF7FFFFDFBFFDFBF7FFFFFEFDBFFB76
:10036600FFFFFFDFFEFDFBF7FFFFDFFBF7EFFEFD05
:10037600FFDFBFFBFFFFFFFFDFBFFBF7EFFEFDDF8A
:10038600BFFBF7FEFDFFBFFBFFFFFFFFFFBFFBFF4E
:10039600FFFFFFFFDFBFFBF7EFFEFFDFBFFBF7EF60
:0203A600FEFF58
:00000001FF
