:100000000C942A000C9434000C9434000C943400AA
:100010000C9434000C9434000C9434000C94340090
:100020000C9434000C9434000C9434000C94340080
:100030000C9434000C9434000C9434000C94340070
:100040000C9434000C9434000C9434000C94340060
:100050000C94340011241FBECFE5D8E0DEBFCDBF25
:100060000E9436000C9446000C9400008D9A8EB5C8
:1000700088608EBD8FB580648FBD88E09DE39BBD99
:100080008ABD8EB583608EBD0000FECFF894FFCF91
:00000001FF
